S00C00004C6162352E73726563D4
S113000071C000008EC000008CC000008AC00000D7
S113001088C0000086C0000084C0000082C00000C8
S113002080C000007EC000007CC000007AC00000D8
S113003078C0000076C0000074C0000072C00000E8
S113004070C000006EC000006CC000006AC00000F8
S113005068C0000066C0000064C0000062C0000008
S113006060C000005EC000005CC000005AC0000018
S113007058C00000CCC2000054C0000052C00000B0
S113008050C000004EC000004CC000004AC0000038
S113009048C0000046C0000044C0000042C0000048
S11300A040C000003EC000003CC000003AC0000058
S11300B038C0000036C0000034C0000032C0000068
S11300C030C000002EC000002CC000002AC0000078
S11300D028C0000026C0000024C0000022C0000088
S11300E020C0000011241FBECFEFD1E2DEBFCDBF80
S11300F000E00CBF13E0A0E0B2E0E6EBFCE000E0BF
S11301000BBF02C007900D92AE36B107D9F723E0BA
S1130110AEE6B3E001C01D92A539B207E1F753D0B2
S1130120C8C56ECF00000000000000000000000001
S11301300000000000000000000000000895F2DF4D
S11301408A95E9F70895282F8AEFF9DF8AEFF7DF18
S11301508AEFF5DF8AEFF3DF2A95B1F708958AEF86
S1130160F2DF8AEFF0DF8AEFEEDF8AEFECCF08955B
S1130170382FF5DF3A95E9F70895ACD155C10895C4
S1130180EF92FF920F931F93CF937C018B01C42FA7
S113019079D160E080E081D185B1806185B9C70102
S11301A08CD160E081E079D185B1806185B9C801E5
S11301B084D1CC2311F08C2FDBDFCF911F910F91D1
S11301C0FF90EF900895D9DF5DD13ED21092830362
S11301D09CD18093830384E1B6DF80916F03811106
S11301E029C05AD2809370038BE0E0E0F2E0A4E8E7
S11301F0B3E001900D928A95E1F740E06BE372E081
S113020084E893E0BDDF80918303813341F49091CE
S11302107003911104C083E080936E03AAC08333FA
S113022009F0A7C0809170038111A3C081E080937D
S11302306E039FC0813001F589E0EBE0F2E0A4E8B1
S1130240B3E001900D928A95E1F740E06BE372E030
S113025084E893E095DF20D2809370039091830328
S1130260903319F410926E0384C0882309F481C07A
S113027082E080936E037DC0823061F50DD280935D
S113028070039BE0E4E1F2E0A4E8B3E001900D9296
S11302909A95E1F71F928F938FE192E09F938F934A
S11302A082E793E09F938F9329D240E062E773E063
S11302B084E893E065DF29D1809383030F900F9046
S11302C00F900F900F900F90803309F052C010924E
S11302D06E034FC0833009F5DFD1809370038AE049
S11302E0E2E3F2E0A4E8B3E001900D928A95E1F72D
S11302F040E06BE372E084E893E042DF80918303A3
S1130300803319F410926E0334C0809170038823F3
S113031081F184E080936E032CC0843051F5BCD10C
S1130320809370039BE0ECE3F2E0A4E8B3E0019077
S11303300D929A95E1F71F928F938FE192E09F932C
S11303408F9382E793E09F938F93D8D140E062E745
S113035073E084E893E014DFD8D0809383030F9094
S11303600F900F900F900F900F90803311F4109214
S11303706E0380916E0380936F0382E3E4DE28CFE3
S11303800F931F93CF93DF93082F85B18F7B85B98C
S113039010E018C0002334F4E2E0F1E080818064CE
S11303A0808305C0E2E0F1E080818F7B8083C2E03E
S11303B0D1E0888180628883B5DE88818F7D8883DF
S11303C0000F1F5F183030F385B1806485B9DF9169
S11303D0CF911F910F910895CF93DF93811106C0A0
S11303E085B18F7E85B9862FCBDF1BC085B1806137
S11303F085B9D0EED60FC0E010C02D2F30E0F90142
S1130400EE0FFF1FEE0FFF1FE20FF31FE95BFD4F1F
S1130410EC0FF11D8081B4DFCF5FC53070F380E055
S1130420AFDFDF91CF910895E1E0F1E08081806258
S1130430808380818064808384B1806184B984B145
S1130440806284B984B1806484B984E17CDE85B13E
S1130450806285B98AE077DE85B1806485B961E21E
S113046080E0BADF63E180E0B7DF60EC80E0B4DF16
S113047064E080E0B1DF60E280E0AEDF6CE080E069
S1130480ABCF0895CF93C0E004C060E281E0A4DF65
S1130490CF5FC435D0F3CF910895CF93C62F682F83
S11304A0606480E099DF8C2F880FC80F6C2F660F73
S11304B0606880E091DFCF910895CF93DF93EC01E2
S11304C003C081E089DF219668816111FACFDF9151
S11304D0CF91089583B3806283BB8DB188608DB959
S11304E0E1E0F1E0808188608083808180618083A5
S11304F080B38F7D80BB80B38F7E80BB8DB18F7EB8
S11305008DB98DB18F7D8DB9089584B3806284BB1C
S11305108EB1877F8EB9E2E0F1E08081877F8083AE
S113052080818F7E808381E00EDE7D9950C07C992E
S113053050C0649950C0659950C084B38F7D84BB0A
S11305408EB188608EB9E2E0F1E08081877F80839C
S113055080818F7E808381E0F6DD7D9940C07C9927
S113056040C0649940C0659940C084B38F7D84BB0A
S11305708EB1877F8EB9E2E0F1E08081886080836C
S113058080818F7E808381E0DEDD7D9930C07C991F
S113059030C0649930C0659930C084B38F7D84BB0A
S11305A08EB1877F8EB9E2E0F1E08081877F80831E
S11305B080818061808381E0C6DD7D9920C07C9943
S11305C020C0649920C0659B20C084E4089581E321
S11305D0089584E3089587E308958AE2089582E301
S11305E0089585E3089588E3089580E3089583E3F7
S11305F0089586E3089589E3089583E2089581E4E4
S1130600089582E4089583E4089580E008951F9294
S11306100F920FB60F9211240BB60F928F93EF9394
S1130620FF938091790080937103EAE7F0E0808181
S113063080648083FF91EF918F910F900BBE0F9098
S11306400FBE0F901F901895ECE7F0E08081806456
S11306508083808187608083ABE7B0E08C91886081
S11306608C93808180628083EAE7F0E080818760F8
S113067080838081806280838081886080838081A0
S113068080688083ADE7B0E08C9180688C93789427
S113069080818064808308958091710324E6829F21
S11306A0C00111246FEF70E002D0862F089597FBEC
S11306B0072E16F4009406D077FD08D00BD007FC63
S11306C005D03EF4909581959F4F0895709561955E
S11306D07F4F0895AA1BBB1B51E107C0AA1FBB1F74
S11306E0A617B70710F0A61BB70B881F991F5A95BA
S11306F0A9F780959095BC01CD0108950F931F93A0
S1130700CF93DF93CDB7DEB72E970FB6F894DEBF45
S11307100FBECDBF0E891F8986E08C831A8309839F
S11307208FEF9FE79E838D83AE01465E5F4F688D9A
S1130730798DCE01019610D0EF81F885E00FF11F7D
S113074010822E960FB6F894DEBF0FBECDBFDF9198
S1130750CF911F910F9108952F923F924F925F92E4
S11307606F927F928F929F92AF92BF92CF92DF92BD
S1130770EF92FF920F931F93CF93DF93CDB7DEB722
S11307802B970FB6F894DEBF0FBECDBF6C017B0173
S11307908A01FC0117821682838181FFBFC1CE01C9
S11307A001963C01F6019381F70193FD859193FF36
S11307B081917F01882309F4ADC1853239F493FD19
S11307C0859193FF81917F01853221F4B60190E0F8
S11307D0D6D1E8CF912C212C312CFFE1F315D8F0A0
S11307E08B3279F038F4803279F08332A1F4232DFE
S11307F020611DC08D3261F0803369F4232D2160A6
S113080016C0832D8260382EE32DE4603E2E2AC06C
S1130810F32DF8601DC037FC2DC020ED280F2A30C1
S113082040F08E32B9F436FC75C1232D2064322E8B
S113083019C036FE06C08AE0989E200D1124922E1F
S113084011C0EAE02E9E200D1124222EF32DF06219
S11308503F2E08C08C3621F4832D8068382E02C0C8
S1130860883641F4F70193FD859193FF81917F01CF
S11308708111B3CF982F9F7D9554933028F40C5F4A
S11308801F4F9FE399830DC0833631F0833771F096
S1130890833509F055C020C0F801808189830E5F3B
S11308A01F4F88248394912C530112C02801F2E035
S11308B04F0E511CF801A080B18036FE03C0692D93
S11308C070E002C06FEF7FEFC5014ED14C01820191
S11308D0F32DFF773F2E15C0280122E0420E511C54
S11308E0F801A080B18036FE03C0692D70E002C01B
S11308F06FEF7FEFC5012DD14C01F32DF0683F2E32
S1130900820133FC19C0822D90E088169906A0F468
S1130910B60180E290E033D12A94F5CFF50137FC9B
S1130920859137FE81915F01B60190E028D12110B5
S11309302A9421E0821A91088114910479F7E1C084
S1130940843611F0893639F5F80137FE07C0608125
S11309507181828193810C5F1F4F08C06081718116
S1130960072E000C880B990B0E5F1F4FF32DFF769B
S11309703F2E97FF09C090958095709561957F4FA4
S11309808F4F9F4FF0683F2E2AE030E0A30133D110
S1130990882E861844C0853731F4232D2F7EB22E3D
S11309A02AE030E025C0932D997FB92E8F36C1F00F
S11309B018F4883579F0AEC0803719F0883721F003
S11309C0A9C0E92FE061BE2EB4FE0DC0FB2DF4607A
S11309D0BF2E09C034FE0AC0292F2660B22E06C0DD
S11309E028E030E005C020E130E002C020E132E040
S11309F0F801B7FE07C060817181828193810C5F29
S1130A001F4F06C06081718180E090E00E5F1F4F30
S1130A10A301F1D0882E8618FB2DFF773F2E36FEDA
S1130A200DC0232D2E7FA22E891458F434FE0BC042
S1130A3032FC09C0832D8E7EA82E05C0B82CA32CB1
S1130A4003C0B82C01C0B92CA4FE0FC0FE01E80DF0
S1130A50F11D8081803321F49A2D997EA92E09C03D
S1130A60A2FE06C0B394B39404C08A2D867809F01C
S1130A70B394A3FC10C0A0FE06C0B21480F4280CEA
S1130A80922C9B180DC0B21458F4B60180E290E089
S1130A9076D0B394F8CFB21418F42B1802C0982C63
S1130AA0212CA4FE0FC0B60180E390E068D0A2FE22
S1130AB016C0A1FC03C088E790E002C088E590E07E
S1130AC0B6010CC08A2D867851F0A1FE02C08BE2DB
S1130AD001C080E2A7FC8DE2B60190E050D08914F9
S1130AE030F4B60180E390E04AD09A94F8CF8A9427
S1130AF0F301E80DF11D8081B60190E040D0811032
S1130B00F6CF222009F44ECEB60180E290E037D031
S1130B102A94F7CFF6018681978102C08FEF9FEF69
S1130B202B960FB6F894DEBF0FBECDBFDF91CF91E9
S1130B301F910F91FF90EF90DF90CF90BF90AF90F7
S1130B409F908F907F906F905F904F903F902F90E9
S1130B500895FC010590615070400110D8F780950C
S1130B6090958E0F9F1F0895FC0161507040019075
S1130B700110D8F7809590958E0F9F1F08950F93BD
S1130B801F93CF93DF93FB01238121FD03C08FEFDC
S1130B909FEF2CC022FF16C04681578124813581E6
S1130BA04217530744F4A081B1819D012F5F3F4F49
S1130BB0318320838C93268137812F5F3F4F378386
S1130BC0268314C08B01EC01FB010084F185E02D28
S1130BD01995892BE1F6D80116968D919C9117975A
S1130BE0019617969C938E931697CE01DF91CF9121
S1130BF01F910F910895FA01AA27283051F120314D
S1130C0081F1E8946F936E7F6E5F7F4F8F4F9F4F9C
S1130C10AF4FB1E03ED0B4E03CD0670F781F891FDE
S1130C209A1FA11D680F791F8A1F911DA11D6A0FAC
S1130C30711D811D911DA11D20D009F468943F915F
S1130C402AE0269F11243019305D3193DEF6CF015E
S1130C500895462F4770405D4193B3E00FD0C9F724
S1130C60F6CF462F4F70405D4A3318F0495D31FD91
S1130C704052419302D0A9F7EACFB4E0A6959795E4
S1130C80879577956795BA95C9F7009761057105BA
S1130C9008959B01AC010A2E069457954795379504
S1130CA02795BA95C9F7620F731F841F951FA01D5E
S1090CB00895F894FFCF43
S1130CB64D4F544F52204F46462100464F525741FE
S1130CC65244210052554E4E494E47204657004D38
S1130CD64F544F522053504545443A2020257525FC
S1130CE625004241434B57415244210052554E4E32
S1130CF6494E4720425700000000000000005F00F4
S1130D06000007000700147F147F14242A7F2A1288
S1130D162313086462364955225000050300000077
S1130D261C2241000041221C0014083E0814080835
S1130D363E080800503000000808080808006060F3
S1130D46000020100804023E5149453E00427F40FF
S1130D560042615149462141454B311814127F1016
S1130D6627454545393C4A49493001710905033649
S1130D7649494936064949291E00363600000056B7
S1130D8636000008142241001414141414004122DD
S1130D9614080201510906324979413E7E111111A6
S1130DA67E7F494949363E414141227F4141221CC9
S1130DB67F494949417F090909013E4149497A7FE9
S1130DC60808087F00417F41002040413F017F0819
S1130DD61422417F404040407F020C027F7F04087A
S1130DE6107F3E4141413E7F090909063E4151219A
S1130DF65E7F09192946464949493101017F0101A6
S1130E063F4040403F1F2040201F3F4038403F6343
S1110E16140814630708700807615149454326
S9030000FC
