S00C00004C6162342E73726563D5
S113000071C000008EC000008CC000008AC00000D7
S113001088C0000086C0000084C0000082C00000C8
S113002080C000007EC000007CC000007AC00000D8
S113003078C0000076C0000074C0000072C00000E8
S113004070C000006EC000006CC000006AC00000F8
S113005068C0000066C0000064C0000062C0000008
S113006060C000005EC000005CC000005AC0000018
S113007058C0000056C0000054C0000052C0000028
S113008050C000004EC000004CC000004AC0000038
S113009048C0000046C0000044C0000042C0000048
S11300A040C000003EC000003CC000003AC0000058
S11300B038C0000036C0000034C0000032C0000068
S11300C030C000002EC000002CC000002AC0000078
S11300D028C0000026C0000024C0000022C0000088
S11300E020C0000011241FBECFEFD1E2DEBFCDBF80
S11300F000E00CBF13E0A0E0B2E0E0E5FEE000E0C9
S11301000BBF02C007900D92AC3DB107D9F723E0B5
S1130110ACEDB3E001C01D92AC3DB207E1F735D2BE
S113012095C66ECF00000000000000000000000033
S11301300000000000000000000000000895F2DF4D
S11301408A95E9F70895282F8AEFF9DF8AEFF7DF18
S11301508AEFF5DF8AEFF3DF2A95B1F708958AEF86
S1130160F2DF8AEFF0DF8AEFEEDF8AEFECCF08955B
S1130170382FF5DF3A95E9F70895CF93DF931F926F
S11301801F92CDB7DEB7BE016F5F7F4F84E092E070
S1130190D4D0882339F089819A81009719F0853663
S11301A0910538F041E063E172E082E292E028D107
S11301B0EACF0F900F90DF91CF9108950F931F9383
S11301C0CF93DF93EC018B01D8DF8C179D0741F4AB
S11301D041E062E172E081E392E012D180E017C075
S11301E08C179D0738F441E062E172E081E492E00B
S11301F007D106C041E062E172E08AE492E000D1F6
S1130200F8018081918101969183808381E0DF915F
S1130210CF911F910F910895EF92FF920F931F9327
S1130220CF93DF93CDB7DEB761970FB6F894DEBFF7
S11302300FBECDBF8C011F938F9384E592E09F93F3
S11302408F93CE0101967C019F938F93C7D243E095
S113025062E172E0C701D4D00F900F900F900F901D
S11302600F900F900830110538F443E062E172E01A
S113027080E692E0C5D006C043E06AE672E087E714
S113028092E0BED061960FB6F894DEBF0FBECDBF2C
S1130290DF91CF911F910F91FF90EF9008950F93ED
S11302A01F93CF93DF931F921F92CDB7DEB78C01BC
S11302B01A82198243E063E872E08FE892E0A0D0EA
S11302C0BE016F5F7F4FC80179DF8111F9CF89814A
S11302D09A81A2DF0F900F90DF91CF911F910F9120
S11302E00895CF93DF93EC01615021E030E0E0E02A
S11302F0F0E0DE01A60FB11D9C919053929FD001B6
S1130300939FB00D1124EA0FFB1FD901AA0FBB1F45
S1130310220F331F220F331F220F331F2A0F3B1FBD
S1130320662311F06150E5CFDA01ED93FC93DF9180
S1130330CF9108953AD1D3C00895EF92FF920F93CD
S11303401F93CF93DF9300D01F92CDB7DEB78C01FC
S11303507B01F3D060E080E0FBD0C80109D160E00C
S113036081E0F6D000E03CD1182F8823E1F38FEB35
S1130370810F8430C0F3133249F11A32A1F40023FF
S1130380F9F00150E1E0F0E0EC0FFD1FE00FF11D8A
S11303901082602F81E0DCD060E281E078D0602FB1
S11303A081E0D6D00DC0033058F4612F81E06FD0C6
S11303B0E1E0F0E0EC0FFD1FE00FF11D10830F5F93
S11303C08AEFC1DE0DD18111FBCFCDCFE1E0F0E0AA
S11303D0EC0FFD1FE00FF11D1082002329F0A7018F
S11303E0602FCE0101967DDF802F0F900F900F902C
S11303F00F90DF91CF911F910F91FF90EF9008958F
S1130400EF92FF920F931F93CF937C018B01C42F24
S113041094D060E080E09CD0C701AAD060E081E085
S113042097D0C801A5D08C2FA3DECF911F910F9137
S1130430FF90EF9008950F931F93CF93DF93082FAE
S113044085B18F7B85B910E018C0002334F4E2E055
S1130450F1E080818064808305C0E2E0F1E0808186
S11304608F7B8083C2E0D1E08881806288835ADEFA
S113047088818F7D8883000F1F5F183030F385B12A
S1130480806485B9DF91CF911F910F910895CF9327
S1130490DF93811106C085B18F7E85B9862FCBDFAE
S11304A01BC085B1806185B9D0EED60FC0E010C005
S11304B02D2F30E0F901EE0FFF1FEE0FFF1FE20FAB
S11304C0F31FE356FD4FEC0FF11D8081B4DFCF5FC6
S11304D0C53070F380E0AFDFDF91CF910895E1E0A4
S11304E0F1E080818062808380818064808384B134
S11304F0806184B984B1806284B984B1806484B930
S113050084E121DE85B1806285B98AE01CDE85B193
S1130510806485B961E280E0BADF63E180E0B7DF3F
S113052060EC80E0B4DF64E080E0B1DF60E280E0B2
S1130530AEDF6CE080E0ABCF0895CF93C0E004C0A1
S113054060E281E0A4DFCF5FC435D0F3CF9108959A
S1130550CF93C62F682F606480E099DF8C2F880FBB
S1130560C80F6C2F660F606880E091DFCF9108950B
S1130570CF93DF93EC0103C081E089DF219668818A
S11305806111FACFDF91CF910895D4DE81E090E03C
S11305901AD143E064EC73E082ED93E031DF10D1D3
S11305A065E670E09FD07BDEFACF83B3806283BBC5
S11305B08DB188608DB9E1E0F1E08081886080834D
S11305C080818061808380B38F7D80BB80B38F7E88
S11305D080BB8DB18F7E8DB98DB18F7D8DB908951E
S11305E084B3806284BB8EB1877F8EB9E2E0F1E090
S11305F08081877F808380818F7E808381E0A3DDFB
S11306007D9950C07C9950C0649950C0659950C080
S113061084B38F7D84BB8EB188608EB9E2E0F1E053
S11306208081877F808380818F7E808381E08BDDE2
S11306307D9940C07C9940C0649940C0659940C090
S113064084B38F7D84BB8EB1877F8EB9E2E0F1E005
S113065080818860808380818F7E808381E073DDE8
S11306607D9930C07C9930C0649930C0659930C0A0
S113067084B38F7D84BB8EB1877F8EB9E2E0F1E0D5
S11306808081877F808380818061808381E05BDDDE
S11306907D9920C07C9920C0649920C0659B20C0AE
S11306A084E4089581E3089584E3089587E3089535
S11306B08AE2089582E3089585E3089588E308951E
S11306C080E3089583E3089586E3089589E3089514
S11306D083E2089581E4089582E4089583E408950B
S11306E080E0089597FB072E16F4009406D077FD5A
S11306F008D00BD007FC05D03EF4909581959F4F10
S11307000895709561957F4F0895AA1BBB1B51E115
S113071007C0AA1FBB1FA617B70710F0A61BB70B6D
S1130720881F991F5A95A9F780959095BC01CD0112
S113073008958F929F92AF92BF92CF92DF92EF92E1
S1130740FF92CF93DF93EC01688179818A819B8149
S1130750611571058105910521F464E279ED8BE55C
S113076097E02DE133EF41E050E013D349015A0102
S11307709B01AC01A7EAB1E428D36B017C01ACEE88
S1130780B4EFA50194012DD3DC01CB018C0D9D1D8B
S1130790AE1DBF1DB7FF03C00197A109B0488883F0
S11307A09983AA83BB839F77DF91CF91FF90EF90CA
S11307B0DF90CF90BF90AF909F908F900895B9CF66
S11307C080E092E0B6CFA0E0B0E080930002909386
S11307D00102A0930202B093030208950F931F93A2
S11307E0CF93DF93CDB7DEB72E970FB6F894DEBF65
S11307F00FBECDBF0E891F8986E08C831A830983BF
S11308008FEF9FE79E838D83AE01465E5F4F688DB9
S1130810798DCE01019610D0EF81F885E00FF11F9C
S113082010822E960FB6F894DEBF0FBECDBFDF91B7
S1130830CF911F910F9108952F923F924F925F9203
S11308406F927F928F929F92AF92BF92CF92DF92DC
S1130850EF92FF920F931F93CF93DF93CDB7DEB741
S11308602B970FB6F894DEBF0FBECDBF6C017B0192
S11308708A01FC0117821682838181FFBFC1CE01E8
S113088001963C01F6019381F70193FD859193FF55
S113089081917F01882309F4ADC1853239F493FD38
S11308A0859193FF81917F01853221F4B60190E017
S11308B0D6D1E8CF912C212C312CFFE1F315D8F0BF
S11308C08B3279F038F4803279F08332A1F4232D1D
S11308D020611DC08D3261F0803369F4232D2160C5
S11308E016C0832D8260382EE32DE4603E2E2AC08C
S11308F0F32DF8601DC037FC2DC020ED280F2A30E1
S113090040F08E32B9F436FC75C1232D2064322EAA
S113091019C036FE06C08AE0989E200D1124922E3E
S113092011C0EAE02E9E200D1124222EF32DF06238
S11309303F2E08C08C3621F4832D8068382E02C0E7
S1130940883641F4F70193FD859193FF81917F01EE
S11309508111B3CF982F9F7D9554933028F40C5F69
S11309601F4F9FE399830DC0833631F0833771F0B5
S1130970833509F055C020C0F801808189830E5F5A
S11309801F4F88248394912C530112C02801F2E054
S11309904F0E511CF801A080B18036FE03C0692DB2
S11309A070E002C06FEF7FEFC5014ED14C018201B0
S11309B0F32DFF773F2E15C0280122E0420E511C73
S11309C0F801A080B18036FE03C0692D70E002C03A
S11309D06FEF7FEFC5012DD14C01F32DF0683F2E51
S11309E0820133FC19C0822D90E088169906A0F488
S11309F0B60180E290E033D12A94F5CFF50137FCBB
S1130A00859137FE81915F01B60190E028D12110D4
S1130A102A9421E0821A91088114910479F7E1C0A3
S1130A20843611F0893639F5F80137FE07C0608144
S1130A307181828193810C5F1F4F08C06081718135
S1130A40072E000C880B990B0E5F1F4FF32DFF76BA
S1130A503F2E97FF09C090958095709561957F4FC3
S1130A608F4F9F4FF0683F2E2AE030E0A30133D12F
S1130A70882E861844C0853731F4232D2F7EB22E5C
S1130A802AE030E025C0932D997FB92E8F36C1F02E
S1130A9018F4883579F0AEC0803719F0883721F022
S1130AA0A9C0E92FE061BE2EB4FE0DC0FB2DF46099
S1130AB0BF2E09C034FE0AC0292F2660B22E06C0FC
S1130AC028E030E005C020E130E002C020E132E05F
S1130AD0F801B7FE07C060817181828193810C5F48
S1130AE01F4F06C06081718180E090E00E5F1F4F50
S1130AF0A301F1D0882E8618FB2DFF773F2E36FEFA
S1130B000DC0232D2E7FA22E891458F434FE0BC061
S1130B1032FC09C0832D8E7EA82E05C0B82CA32CD0
S1130B2003C0B82C01C0B92CA4FE0FC0FE01E80D0F
S1130B30F11D8081803321F49A2D997EA92E09C05C
S1130B40A2FE06C0B394B39404C08A2D867809F03B
S1130B50B394A3FC10C0A0FE06C0B21480F4280C09
S1130B60922C9B180DC0B21458F4B60180E290E0A8
S1130B7076D0B394F8CFB21418F42B1802C0982C82
S1130B80212CA4FE0FC0B60180E390E068D0A2FE41
S1130B9016C0A1FC03C088E790E002C088E590E09D
S1130BA0B6010CC08A2D867851F0A1FE02C08BE2FA
S1130BB001C080E2A7FC8DE2B60190E050D0891418
S1130BC030F4B60180E390E04AD09A94F8CF8A9446
S1130BD0F301E80DF11D8081B60190E040D0811051
S1130BE0F6CF222009F44ECEB60180E290E037D051
S1130BF02A94F7CFF6018681978102C08FEF9FEF89
S1130C002B960FB6F894DEBF0FBECDBFDF91CF9108
S1130C101F910F91FF90EF90DF90CF90BF90AF9016
S1130C209F908F907F906F905F904F903F902F9008
S1130C300895FC010590615070400110D8F780952B
S1130C4090958E0F9F1F0895FC0161507040019094
S1130C500110D8F7809590958E0F9F1F08950F93DC
S1130C601F93CF93DF93FB01238121FD03C08FEFFB
S1130C709FEF2CC022FF16C0468157812481358105
S1130C804217530744F4A081B1819D012F5F3F4F68
S1130C90318320838C93268137812F5F3F4F3783A5
S1130CA0268314C08B01EC01FB010084F185E02D47
S1130CB01995892BE1F6D80116968D919C91179779
S1130CC0019617969C938E931697CE01DF91CF9140
S1130CD01F910F910895FA01AA27283051F120316C
S1130CE081F1E8946F936E7F6E5F7F4F8F4F9F4FBC
S1130CF0AF4FB1E03ED0B4E03CD0670F781F891FFE
S1130D009A1FA11D680F791F8A1F911DA11D6A0FCB
S1130D10711D811D911DA11D20D009F468943F917E
S1130D202AE0269F11243019305D3193DEF6CF017D
S1130D300895462F4770405D4193B3E00FD0C9F743
S1130D40F6CF462F4F70405D4A3318F0495D31FDB0
S1130D504052419302D0A9F7EACFB4E0A695979503
S1130D60879577956795BA95C9F7009761057105D9
S1130D7008959B01AC010A2E069457954795379523
S1130D802795BA95C9F7620F731F841F951FA01D7D
S1130D900895052E97FB16F400940FD057FD05D047
S1130DA024D007FC02D046F408C0509540953095F5
S1130DB021953F4F4F4F5F4F0895909580957095C3
S1130DC061957F4F8F4F9F4F089531D0A59F900D10
S1130DD0B49F900DA49F800D911D11240895B7FF19
S1130DE0F4CFF3DF821B930B0895A1E21A2EAA1B02
S1130DF0BB1BFD010DC0AA1FBB1FEE1FFF1FA217C7
S1130E00B307E407F50720F0A21BB30BE40BF50BC3
S1130E10661F771F881F991F1A9469F7609570954C
S1130E20809590959B01AC01BD01CF010895A29FCF
S1130E30B001B39FC001A39F700D811D1124911DAA
S1130E40B29F700D811D1124911D0895F894FFCF58
S1130E5001000000454E544552204E554D42455226
S1130E603A20004245545745454E20312D3130300B
S1130E702100454E5445522041204E554D42455285
S1130E8000434F5252454354204E554D4245522142
S1130E9000544F4F204C4F572100544F4F20484986
S1130EA047482100475545535345533A202575007B
S1130EB0474F4F44204A4F4221004E455854205436
S1130EC0494D452E2E2E00424554544552204C5532
S1130ED0434B00544845204E554D4245523F004334
S1130EE0414E20594F5520475545535300000000AB
S1130EF0000000005F00000007000700147F147F5B
S1130F0014242A7F2A122313086462364955225076
S1130F100005030000001C2241000041221C0014B3
S1130F20083E081408083E0808005030000008086D
S1130F30080808006060000020100804023E5149BF
S1130F40453E00427F400042615149462141454BA4
S1130F50311814127F1027454545393C4A49493018
S1130F6001710905033649494936064949291E00D4
S1130F7036360000005636000008142241001414CE
S1130F80141414004122140802015109063249794B
S1130F90413E7E1111117E7F494949363E4141410E
S1130FA0227F4141221C7F494949417F09090901A6
S1130FB03E4149497A7F0808087F00417F4100206B
S1130FC040413F017F081422417F404040407F025E
S1130FD00C027F7F0408107F3E4141413E7F090996
S1130FE009063E4151215E7F09192946464949496E
S1130FF03101017F01013F4040403F1F2040201F3D
S11310003F4038403F6314081463070870080761C1
S1131010514945434C4554275320504C41592E2E99
S10F10202E0057454C434F4D4521000065
S9030000FC
